{
  "_format": "hh-sol-artifact-1",
  "contractName": "TokenSwapEscrow",
  "sourceName": "contracts/TokenSwapEscrow.sol",
  "abi": [
    {
      "inputs": [],
      "stateMutability": "nonpayable",
      "type": "constructor"
    },
    {
      "inputs": [
        {
          "internalType": "address",
          "name": "owner",
          "type": "address"
        }
      ],
      "name": "OwnableInvalidOwner",
      "type": "error"
    },
    {
      "inputs": [
        {
          "internalType": "address",
          "name": "account",
          "type": "address"
        }
      ],
      "name": "OwnableUnauthorizedAccount",
      "type": "error"
    },
    {
      "inputs": [],
      "name": "ReentrancyGuardReentrantCall",
      "type": "error"
    },
    {
      "anonymous": false,
      "inputs": [
        {
          "indexed": true,
          "internalType": "address",
          "name": "previousOwner",
          "type": "address"
        },
        {
          "indexed": true,
          "internalType": "address",
          "name": "newOwner",
          "type": "address"
        }
      ],
      "name": "OwnershipTransferred",
      "type": "event"
    },
    {
      "anonymous": false,
      "inputs": [
        {
          "indexed": true,
          "internalType": "bytes32",
          "name": "swapId",
          "type": "bytes32"
        }
      ],
      "name": "SwapCancelled",
      "type": "event"
    },
    {
      "anonymous": false,
      "inputs": [
        {
          "indexed": true,
          "internalType": "bytes32",
          "name": "swapId",
          "type": "bytes32"
        }
      ],
      "name": "SwapCompleted",
      "type": "event"
    },
    {
      "anonymous": false,
      "inputs": [
        {
          "indexed": true,
          "internalType": "bytes32",
          "name": "swapId",
          "type": "bytes32"
        },
        {
          "indexed": true,
          "internalType": "address",
          "name": "initiator",
          "type": "address"
        },
        {
          "indexed": true,
          "internalType": "address",
          "name": "counterparty",
          "type": "address"
        },
        {
          "indexed": false,
          "internalType": "address[]",
          "name": "inputTokens",
          "type": "address[]"
        },
        {
          "indexed": false,
          "internalType": "uint256[]",
          "name": "inputAmounts",
          "type": "uint256[]"
        },
        {
          "indexed": false,
          "internalType": "address[]",
          "name": "outputTokens",
          "type": "address[]"
        },
        {
          "indexed": false,
          "internalType": "uint256[]",
          "name": "outputAmounts",
          "type": "uint256[]"
        },
        {
          "indexed": false,
          "internalType": "uint256",
          "name": "deadline",
          "type": "uint256"
        }
      ],
      "name": "SwapCreated",
      "type": "event"
    },
    {
      "inputs": [
        {
          "internalType": "bytes32",
          "name": "_swapId",
          "type": "bytes32"
        }
      ],
      "name": "cancelSwap",
      "outputs": [],
      "stateMutability": "nonpayable",
      "type": "function"
    },
    {
      "inputs": [
        {
          "internalType": "address",
          "name": "_counterparty",
          "type": "address"
        },
        {
          "internalType": "address[]",
          "name": "_inputTokens",
          "type": "address[]"
        },
        {
          "internalType": "uint256[]",
          "name": "_inputAmounts",
          "type": "uint256[]"
        },
        {
          "internalType": "address[]",
          "name": "_outputTokens",
          "type": "address[]"
        },
        {
          "internalType": "uint256[]",
          "name": "_outputAmounts",
          "type": "uint256[]"
        },
        {
          "internalType": "uint256",
          "name": "_deadline",
          "type": "uint256"
        }
      ],
      "name": "createSwap",
      "outputs": [
        {
          "internalType": "bytes32",
          "name": "swapId",
          "type": "bytes32"
        }
      ],
      "stateMutability": "nonpayable",
      "type": "function"
    },
    {
      "inputs": [
        {
          "internalType": "address",
          "name": "_token",
          "type": "address"
        },
        {
          "internalType": "uint256",
          "name": "_amount",
          "type": "uint256"
        }
      ],
      "name": "emergencyWithdraw",
      "outputs": [],
      "stateMutability": "nonpayable",
      "type": "function"
    },
    {
      "inputs": [
        {
          "internalType": "bytes32",
          "name": "_swapId",
          "type": "bytes32"
        }
      ],
      "name": "executeSwap",
      "outputs": [],
      "stateMutability": "nonpayable",
      "type": "function"
    },
    {
      "inputs": [
        {
          "internalType": "bytes32",
          "name": "_swapId",
          "type": "bytes32"
        }
      ],
      "name": "getSwap",
      "outputs": [
        {
          "components": [
            {
              "internalType": "address",
              "name": "initiator",
              "type": "address"
            },
            {
              "internalType": "address",
              "name": "counterparty",
              "type": "address"
            },
            {
              "internalType": "address[]",
              "name": "inputTokens",
              "type": "address[]"
            },
            {
              "internalType": "uint256[]",
              "name": "inputAmounts",
              "type": "uint256[]"
            },
            {
              "internalType": "address[]",
              "name": "outputTokens",
              "type": "address[]"
            },
            {
              "internalType": "uint256[]",
              "name": "outputAmounts",
              "type": "uint256[]"
            },
            {
              "internalType": "uint256",
              "name": "deadline",
              "type": "uint256"
            },
            {
              "internalType": "bool",
              "name": "isActive",
              "type": "bool"
            },
            {
              "internalType": "bool",
              "name": "isCompleted",
              "type": "bool"
            },
            {
              "internalType": "bool",
              "name": "isCancelled",
              "type": "bool"
            }
          ],
          "internalType": "struct TokenSwapEscrow.Swap",
          "name": "",
          "type": "tuple"
        }
      ],
      "stateMutability": "view",
      "type": "function"
    },
    {
      "inputs": [],
      "name": "owner",
      "outputs": [
        {
          "internalType": "address",
          "name": "",
          "type": "address"
        }
      ],
      "stateMutability": "view",
      "type": "function"
    },
    {
      "inputs": [],
      "name": "renounceOwnership",
      "outputs": [],
      "stateMutability": "nonpayable",
      "type": "function"
    },
    {
      "inputs": [
        {
          "internalType": "bytes32",
          "name": "",
          "type": "bytes32"
        }
      ],
      "name": "swapExists",
      "outputs": [
        {
          "internalType": "bool",
          "name": "",
          "type": "bool"
        }
      ],
      "stateMutability": "view",
      "type": "function"
    },
    {
      "inputs": [
        {
          "internalType": "bytes32",
          "name": "",
          "type": "bytes32"
        }
      ],
      "name": "swaps",
      "outputs": [
        {
          "internalType": "address",
          "name": "initiator",
          "type": "address"
        },
        {
          "internalType": "address",
          "name": "counterparty",
          "type": "address"
        },
        {
          "internalType": "uint256",
          "name": "deadline",
          "type": "uint256"
        },
        {
          "internalType": "bool",
          "name": "isActive",
          "type": "bool"
        },
        {
          "internalType": "bool",
          "name": "isCompleted",
          "type": "bool"
        },
        {
          "internalType": "bool",
          "name": "isCancelled",
          "type": "bool"
        }
      ],
      "stateMutability": "view",
      "type": "function"
    },
    {
      "inputs": [
        {
          "internalType": "address",
          "name": "newOwner",
          "type": "address"
        }
      ],
      "name": "transferOwnership",
      "outputs": [],
      "stateMutability": "nonpayable",
      "type": "function"
    }
  ],
  "bytecode": "0x608060405234801561001057600080fd5b506001600055338061003c57604051631e4fbdf760e01b81526000600482015260240160405180910390fd5b6100458161004b565b5061009d565b600180546001600160a01b038381166001600160a01b0319831681179093556040519116919082907f8be0079c531659141344cd1fd0a4f28419497f9722a3daafe3b4186f6b6457e090600090a35050565b611968806100ac6000396000f3fe608060405234801561001057600080fd5b506004361061009e5760003560e01c806392654efa1161006657806392654efa1461014157806395ccea6714610154578063d541beb314610167578063eb84e7f21461017a578063f2fde38b1461021057600080fd5b80632d53ca96146100a35780633da0e66e146100db578063715018a6146100fb57806380e21c69146101055780638da5cb5b14610126575b600080fd5b6100c66100b13660046113d5565b60036020526000908152604090205460ff1681565b60405190151581526020015b60405180910390f35b6100ee6100e93660046113d5565b610223565b6040516100d29190611462565b6101036104cc565b005b6101186101133660046116ab565b6104e0565b6040519081526020016100d2565b6001546040516001600160a01b0390911681526020016100d2565b61010361014f3660046113d5565b610a38565b610103610162366004611771565b610ef6565b6101036101753660046113d5565b610f95565b6101d26101883660046113d5565b60026020526000908152604090208054600182015460068301546007909301546001600160a01b0392831693919092169160ff808216916101008104821691620100009091041686565b604080516001600160a01b039788168152969095166020870152938501929092521515606084015215156080830152151560a082015260c0016100d2565b61010361021e36600461179b565b61123c565b61029160405180610140016040528060006001600160a01b0316815260200160006001600160a01b0316815260200160608152602001606081526020016060815260200160608152602001600081526020016000151581526020016000151581526020016000151581525090565b60008281526003602052604090205460ff166102ea5760405162461bcd60e51b815260206004820152601360248201527214ddd85c08191bd95cc81b9bdd08195e1a5cdd606a1b60448201526064015b60405180910390fd5b60008281526002602081815260409283902083516101408101855281546001600160a01b0390811682526001830154168184015292810180548551818502810185018752818152949592949286019383018282801561037257602002820191906000526020600020905b81546001600160a01b03168152600190910190602001808311610354575b50505050508152602001600382018054806020026020016040519081016040528092919081815260200182805480156103ca57602002820191906000526020600020905b8154815260200190600101908083116103b6575b505050505081526020016004820180548060200260200160405190810160405280929190818152602001828054801561042c57602002820191906000526020600020905b81546001600160a01b0316815260019091019060200180831161040e575b505050505081526020016005820180548060200260200160405190810160405280929190818152602001828054801561048457602002820191906000526020600020905b815481526020019060010190808311610470575b50505091835250506006820154602082015260079091015460ff8082161515604084015261010082048116151560608401526201000090910416151560809091015292915050565b6104d4611277565b6104de60006112a4565b565b60006001600160a01b03871661052f5760405162461bcd60e51b8152602060048201526014602482015273496e76616c696420636f756e746572706172747960601b60448201526064016102e1565b60008651116105725760405162461bcd60e51b815260206004820152600f60248201526e4e6f20696e70757420746f6b656e7360881b60448201526064016102e1565b84518651146105bb5760405162461bcd60e51b8152602060048201526015602482015274092dce0eae840c2e4e4c2f2e640dad2e6dac2e8c6d605b1b60448201526064016102e1565b60008451116105ff5760405162461bcd60e51b815260206004820152601060248201526f4e6f206f757470757420746f6b656e7360801b60448201526064016102e1565b82518451146106495760405162461bcd60e51b815260206004820152601660248201527509eeae8e0eae840c2e4e4c2f2e640dad2e6dac2e8c6d60531b60448201526064016102e1565b4282116106985760405162461bcd60e51b815260206004820152601a60248201527f446561646c696e65206d75737420626520696e2066757475726500000000000060448201526064016102e1565b33878787878787426040516020016106b7989796959493929190611810565b60408051601f1981840301815291815281516020928301206000818152600390935291205490915060ff16156107255760405162461bcd60e51b81526020600482015260136024820152725377617020616c72656164792065786973747360681b60448201526064016102e1565b60408051610140810182523381526001600160a01b0389811660208084019182528385018b8152606085018b9052608085018a905260a0850189905260c08501889052600160e086018190526000610100870181905261012087018190528881526002808552979020865181549087166001600160a01b03199182161782559451918101805492909616919094161790935591518051939491936107d193928501929190910190611320565b50606082015180516107ed916003840191602090910190611385565b5060808201518051610809916004840191602090910190611320565b5060a08201518051610825916005840191602090910190611385565b5060c0820151600682015560e082015160079091018054610100808501516101209095015161ffff1990921693151561ff001916939093179315159092029290921762ff0000191662010000911515919091021790556000818152600360205260408120805460ff191660011790555b86518110156109d95760008682815181106108b2576108b2611873565b6020026020010151116109075760405162461bcd60e51b815260206004820152601d60248201527f416d6f756e74206d7573742062652067726561746572207468616e203000000060448201526064016102e1565b86818151811061091957610919611873565b60200260200101516001600160a01b03166323b872dd333089858151811061094357610943611873565b60209081029190910101516040516001600160e01b031960e086901b1681526001600160a01b03938416600482015292909116602483015260448201526064016020604051808303816000875af11580156109a2573d6000803e3d6000fd5b505050506040513d601f19601f820116820180604052508101906109c69190611889565b50806109d1816118ab565b915050610895565b50866001600160a01b0316336001600160a01b0316827f071b863b9d1f391d22c8d60044344afc058e1e3516100560a86d4c7f90394f6a8989898989604051610a269594939291906118d2565b60405180910390a49695505050505050565b610a406112f6565b6000818152600260205260409020600781015460ff16610a945760405162461bcd60e51b815260206004820152600f60248201526e53776170206e6f742061637469766560881b60448201526064016102e1565b6007810154610100900460ff1615610ae75760405162461bcd60e51b815260206004820152601660248201527514ddd85c08185b1c9958591e4818dbdb5c1b195d195960521b60448201526064016102e1565b600781015462010000900460ff1615610b335760405162461bcd60e51b815260206004820152600e60248201526d14ddd85c0818d85b98d95b1b195960921b60448201526064016102e1565b60018101546001600160a01b03163314610b8f5760405162461bcd60e51b815260206004820152601d60248201527f4f6e6c7920636f756e74657270617274792063616e206578656375746500000060448201526064016102e1565b8060060154421115610bd25760405162461bcd60e51b815260206004820152600c60248201526b14ddd85c08195e1c1a5c995960a21b60448201526064016102e1565b60005b6004820154811015610cd057816004018181548110610bf657610bf6611873565b9060005260206000200160009054906101000a90046001600160a01b03166001600160a01b03166323b872dd3330856005018581548110610c3957610c39611873565b6000918252602090912001546040516001600160e01b031960e086901b1681526001600160a01b03938416600482015292909116602483015260448201526064016020604051808303816000875af1158015610c99573d6000803e3d6000fd5b505050506040513d601f19601f82011682018060405250810190610cbd9190611889565b5080610cc8816118ab565b915050610bd5565b5060005b6002820154811015610dbf57816002018181548110610cf557610cf5611873565b60009182526020909120015460018301546003840180546001600160a01b039384169363a9059cbb9316919085908110610d3157610d31611873565b6000918252602090912001546040516001600160e01b031960e085901b1681526001600160a01b03909216600483015260248201526044016020604051808303816000875af1158015610d88573d6000803e3d6000fd5b505050506040513d601f19601f82011682018060405250810190610dac9190611889565b5080610db7816118ab565b915050610cd4565b5060005b6004820154811015610eab57816004018181548110610de457610de4611873565b60009182526020909120015482546005840180546001600160a01b039384169363a9059cbb9316919085908110610e1d57610e1d611873565b6000918252602090912001546040516001600160e01b031960e085901b1681526001600160a01b03909216600483015260248201526044016020604051808303816000875af1158015610e74573d6000803e3d6000fd5b505050506040513d601f19601f82011682018060405250810190610e989190611889565b5080610ea3816118ab565b915050610dc3565b5060078101805461ffff191661010017905560405182907fcbd087f9a8a65f06ed193f7147c5f9da5d4c1b09a2de92b7f4196854a3e0e71090600090a250610ef36001600055565b50565b610efe611277565b816001600160a01b031663a9059cbb610f1f6001546001600160a01b031690565b6040516001600160e01b031960e084901b1681526001600160a01b039091166004820152602481018490526044016020604051808303816000875af1158015610f6c573d6000803e3d6000fd5b505050506040513d601f19601f82011682018060405250810190610f909190611889565b505050565b6000818152600260205260409020600781015460ff16610fe95760405162461bcd60e51b815260206004820152600f60248201526e53776170206e6f742061637469766560881b60448201526064016102e1565b6007810154610100900460ff161561103c5760405162461bcd60e51b815260206004820152601660248201527514ddd85c08185b1c9958591e4818dbdb5c1b195d195960521b60448201526064016102e1565b600781015462010000900460ff16156110905760405162461bcd60e51b815260206004820152601660248201527514ddd85c08185b1c9958591e4818d85b98d95b1b195960521b60448201526064016102e1565b80546001600160a01b03163314806110c2575060018101546001600160a01b0316331480156110c25750806006015442115b61110e5760405162461bcd60e51b815260206004820152601860248201527f4e6f7420617574686f72697a656420746f2063616e63656c000000000000000060448201526064016102e1565b60005b60028201548110156111f95781600201818154811061113257611132611873565b60009182526020909120015482546003840180546001600160a01b039384169363a9059cbb931691908590811061116b5761116b611873565b6000918252602090912001546040516001600160e01b031960e085901b1681526001600160a01b03909216600483015260248201526044016020604051808303816000875af11580156111c2573d6000803e3d6000fd5b505050506040513d601f19601f820116820180604052508101906111e69190611889565b50806111f1816118ab565b915050611111565b5060078101805462ff00ff19166201000017905560405182907f5a399591cfd74c375a1ffd61c20221db0db82381f65516889ed13c8cd1f99d5b90600090a25050565b611244611277565b6001600160a01b03811661126e57604051631e4fbdf760e01b8152600060048201526024016102e1565b610ef3816112a4565b6001546001600160a01b031633146104de5760405163118cdaa760e01b81523360048201526024016102e1565b600180546001600160a01b038381166001600160a01b0319831681179093556040519116919082907f8be0079c531659141344cd1fd0a4f28419497f9722a3daafe3b4186f6b6457e090600090a35050565b60026000540361131957604051633ee5aeb560e01b815260040160405180910390fd5b6002600055565b828054828255906000526020600020908101928215611375579160200282015b8281111561137557825182546001600160a01b0319166001600160a01b03909116178255602090920191600190910190611340565b506113819291506113c0565b5090565b828054828255906000526020600020908101928215611375579160200282015b828111156113755782518255916020019190600101906113a5565b5b8082111561138157600081556001016113c1565b6000602082840312156113e757600080fd5b5035919050565b600081518084526020808501945080840160005b838110156114275781516001600160a01b031687529582019590820190600101611402565b509495945050505050565b600081518084526020808501945080840160005b8381101561142757815187529582019590820190600101611446565b6020815261147c6020820183516001600160a01b03169052565b6000602083015161149860408401826001600160a01b03169052565b5060408301516101408060608501526114b56101608501836113ee565b91506060850151601f19808685030160808701526114d38483611432565b935060808701519150808685030160a08701526114f084836113ee565b935060a08701519150808685030160c08701525061150e8382611432565b92505060c085015160e085015260e08501516101006115308187018315159052565b86015190506101206115458682018315159052565b90950151151593019290925250919050565b80356001600160a01b038116811461156e57600080fd5b919050565b634e487b7160e01b600052604160045260246000fd5b604051601f8201601f1916810167ffffffffffffffff811182821017156115b2576115b2611573565b604052919050565b600067ffffffffffffffff8211156115d4576115d4611573565b5060051b60200190565b600082601f8301126115ef57600080fd5b813560206116046115ff836115ba565b611589565b82815260059290921b8401810191818101908684111561162357600080fd5b8286015b848110156116455761163881611557565b8352918301918301611627565b509695505050505050565b600082601f83011261166157600080fd5b813560206116716115ff836115ba565b82815260059290921b8401810191818101908684111561169057600080fd5b8286015b848110156116455780358352918301918301611694565b60008060008060008060c087890312156116c457600080fd5b6116cd87611557565b9550602087013567ffffffffffffffff808211156116ea57600080fd5b6116f68a838b016115de565b9650604089013591508082111561170c57600080fd5b6117188a838b01611650565b9550606089013591508082111561172e57600080fd5b61173a8a838b016115de565b9450608089013591508082111561175057600080fd5b5061175d89828a01611650565b92505060a087013590509295509295509295565b6000806040838503121561178457600080fd5b61178d83611557565b946020939093013593505050565b6000602082840312156117ad57600080fd5b6117b682611557565b9392505050565b805160009060208084018383156114275781516001600160a01b031687529582019590820190600101611402565b8051600090602080840183831561142757815187529582019590820190600101611446565b60006bffffffffffffffffffffffff19808b60601b168352808a60601b1660148401525061185c61185661185061184a602886018c6117bd565b8a6117eb565b886117bd565b866117eb565b938452505060208201526040019695505050505050565b634e487b7160e01b600052603260045260246000fd5b60006020828403121561189b57600080fd5b815180151581146117b657600080fd5b6000600182016118cb57634e487b7160e01b600052601160045260246000fd5b5060010190565b60a0815260006118e560a08301886113ee565b82810360208401526118f78188611432565b9050828103604084015261190b81876113ee565b9050828103606084015261191f8186611432565b915050826080830152969550505050505056fea26469706673582212208dad75ebf771113fb4968e1fb4b3ded6f1c0b001e422c7c6344dd72a6d76ddf064736f6c63430008140033",
  "linkReferences": {},
  "deployedLinkReferences": {}
}